:020000041000EA
:1000000000B5324B212058609868022188439860DF
:10001000D860186158612E4B002199600221596106
:100020000121F02299502B49196001219960352056
:1000300000F044F80222904214D00621196600F024
:1000400034F8196E01211966002018661A6600F04E
:100050002CF8196E196E196E052000F02FF8012189
:100060000842F9D1002199601B49196000215960AB
:100070001A491B48016001219960EB211966A021F2
:10008000196600F012F800219960164914480160C1
:100090000121996001BC002800D000471248134993
:1000A000086003C880F30888084703B5996A0420EC
:1000B0000142FBD001200142F8D103BD02B5186610
:1000C0001866FFF7F2FF186E186E02BD00000240BE
:1000D000000000180000070000035F00212200005C
:1000E000F4000018222000A00001001008ED00E03C
:1000F00000000000000000000000000074B24E7A12
:1001000000200420F7010010C3010010C5010010F9
:10011000C1010010C1010010C1010010C101001097
:10012000C1010010C1010010C1010010C701001081
:10013000C1010010C1010010C9010010CB01001065
:10014000CD010010CD010010CD010010CD01001037
:10015000CD010010CD010010CD010010CD01001027
:10016000CD010010CD010010CD010010CD01001017
:10017000CD010010CD010010CD010010CD01001007
:10018000CD010010CD010010CD010010CD010010F7
:10019000CD010010CD010010CD010010CD010010E7
:1001A000CD010010CD010010CD010010CD010010D7
:1001B000CD010010CD010010CD010010CD010010C7
:1001C00000BE00BE00BE00BE00BE00BEEFF3058054
:1001D000103800BEF2EB887138900410589004106B
:1001E0003802001090A31AE71E481F49086006C88D
:1001F00081F3088810471D480068002801D019487D
:10020000F3E70DA40ECC002902D000F012F8F9E7B4
:100210001749184A002000E001C19142FCD116495B
:100220008847164988471649884700BEFDE701C937
:1002300001C29A42FBD3704758900410E00000209E
:10024000A012002018A204100000042000000420C6
:1002500018A2041000100420001004200000000068
:10026000704700000000000008ED00E0000000D032
:10027000A01200202CDB002049D300102103001025
:1002800041D30010F8B5C0460448054B10B5834271
:1002900003D0044B002B00D0984710BDA0120020C3
:1002A000A01200200000000006480749091A8B1020
:1002B000C90FC91810B5491003D0044B002B00D04A
:1002C000984710BDA0120020A012002000000000DE
:1002D00010B5074C2378002B09D1FFF7D5FF054B4C
:1002E000002B02D0044800E000BF0123237010BDA2
:1002F00078150020000000004C000110054B10B5DF
:10030000002B03D00449054800E000BFFFF7CCFFF5
:1003100010BDC046000000007C1500204C000110FC
:1003200070B50DF053F907F067FA002816D10E4D9D
:100330000E4C28000DF09AF90121002007F04CFA2C
:100340000B4801F0B3F920000DF090F900210020D6
:1003500007F042FA064801F0A9F9EAE705480DF06E
:1003600085F90120404270BD6C000110740001103D
:10037000C40900005000011010B504F0DDFE10BDEE
:100380000123F0B50B7283B0040004F009FF0500EF
:10039000431C0DD11249134B1A685B6800920193FC
:1003A0008A60CB60236820005B69984703B0F0BD8A
:1003B00001F026FAFA2206000F000023280000218F
:1003C00092000BF077FC36184F41002F03DB0449F5
:1003D0008E60CF60E6E70126034F7642F7E7C0461E
:1003E00090110020A8000110FFFFFF7F70B5094D9C
:1003F00004002B78002B08D00123074920000B7242
:100400002368DB699847012070BD01F0D5FF012307
:100410002B70F1E71FDB00208011002010B50400D5
:10042000036804499B699847236820001B6A0249B6
:10043000984710BD901100208011002000207047C7
:100440007047C04610B501F0DBF9002905D0FA224B
:10045000002392000BF0F0F810BDFA2189000BF098
:10046000ADF8F9E7020083680832002B04D107E0F9
:100470001A001B68002B03D09942F9D1002003E039
:100480000023012011600B607047C0468368002B79
:1004900008D0994202D107E0994207D01A001B68A0
:1004A000002BF9D100207047020008320B680120B0
:1004B0001360F8E74368021D002B04D107E01A001F
:1004C0001B68002B03D09942F9D1002003E00023E0
:1004D000012011600B6070474368002B08D09942DF
:1004E00002D107E0994206D01A001B68002BF9D10F
:1004F00000207047021D0B6801201360F9E7C04619
:10050000F8B54746CE468368804680B5002B29D093
:1005100008234344994601F073F943469E6804005A
:100520000D00002E58D000234F469C46B268F36859
:1005300020002900801A9941002902DB14001D00C7
:10054000BC4637003668002EF0D16346002B43D0FE
:10055000196840460A681A604B68984743469B688A
:10056000002BD8D143465C68002C31D00025237A7B
:10057000002B29D0210063682572404698472468E3
:10058000002CF4D1174B1868596843469E68002E1A
:1005900004D112E020002900002E0ED0330002000A
:1005A0009C68DD680B00121BAB413668002BF1DC48
:1005B000F2D1002AEED1002EF0D1434618615961E4
:1005C000C0BCB946B046F8BD2468002CCFD1D9E7ED
:1005D000044B18685968F0E743465C68002CC5D1A5
:1005E000D0E7C046A80001108023DB051868000F83
:1005F0007047C0460FB400B5084883B00DF036F818
:10060000049B002B07D005A9180001910CF07EFE79
:1006100003480DF02BF801200CF090FE7C00011037
:1006200080120110104A114B10B512184B4199005D
:10063000900F0843990F504059400D4A0D4B0BF055
:1006400039FB03004A01C00E1043CA0E5840514006
:10065000094B0A4A0BF02EFB03004A00C00F10435F
:10066000CA0F5840514010BD157C4A7FB979379E5A
:10067000B9E5E41C6D4758BFBB49D094EB11311369
:10068000F0B504684568060023002A00C646806865
:10069000F16803430A4300B5134304D101F0B0F8F5
:1006A00003000B43FAD02A06230A604027061343AF
:1006B0002A0A3A43070CBC4669404B4098466346B9
:1006C0000F041F43424003045A4043467B403260BC
:1006D0007360C20E4B011343C90E40010843B3605F
:1006E000A10FAB000B43A200A4185D41EB01620E09
:1006F0001A43E4016B0E2343F0601E0017005B0FEA
:10070000D100F00019438019794180BCB846F0BD92
:10071000F0B5DE4657464E464546E0B5B84B8DB07F
:100720001B78002B00D1ECE008AB9846B54BB64CDB
:100730000393B64BB64F04931022049940460BF036
:1007400015FBB44B1B78DBB2059301F059F8FFF7AA
:1007500069FF089B584043465B68089059404346F0
:100760005960AD4B9B69DB0400D5C0E00AF01AFE6E
:10077000EFF305839B46B9465F46A84B256866683C
:100780009A4628003100002F1AD001F043F8EFF309
:10079000108272B653461B68002BFBD0BFF35F8FED
:1007A0002368AB420FD0BFF35F8F0021534619601F
:1007B00082F310882568666828003100002FE4D194
:1007C00000F00CFFE3E76368B342ECD10125924BE4
:1007D0001600D8694F46054001F012F80A2200239E
:1007E00080185941002900DA7DE03A687B68921848
:1007F0005B412060616028001C00130010430093DF
:10080000019438607C60BFF35F8F0024834A1460DA
:1008100086F310880199FFF705FF43469B68804ADD
:1008200058404346DB689446594043469860D96037
:10083000039B7C4A1B78DB006344986890425ED03F
:100840000021FFF7EFFE089B584043465B68089085
:10085000594043465960EFF3108572B66F4A1368EA
:10086000002BFCD0BFF35F8F6A4B059A1B78934235
:1008700019D0049940460B6840681A00089B5A40FA
:10088000089242464B68434053608B68009343464E
:10089000009A9B685A40CB684146C96800934B4018
:1008A00041468A60CB604046FFF7EAFE1022060010
:1008B0000C00049841460BF059FA564B554A1B78E8
:1008C0000133DBB21370BFF35F8F0022534B1A600A
:1008D00085F31088300021000DB0F0BCBB46B24655
:1008E000A946A046F0BD01204F4940427DE74F4B4D
:1008F000DA6BE0231340402B00D039E736E79C60E9
:100900009EE74B4B9946186859684A4B9C464A4BA0
:100910009846830E8F011F438601030C0D041D436F
:1009200032003B00040412196B41121A8B416146DC
:1009300001C98C460021009001910098019980180E
:100940005941C445E5D14B4618605960FFF76AFE2E
:1009500008AB9846089B584043465B68089059404E
:10096000434606A8596000F021F906980799FFF759
:1009700059FE43469B6858404346DB68594043460E
:100980009860D960244B9B69DB0436D5274BDA6B22
:10099000E0231340402B30D0EFF305839A464023E9
:1009A0000024039300231D4F00930194164C002351
:1009B0009B4653462568666828003100002B19D0F5
:1009C00000F028FFEFF3108972B63B68002BFCD0D3
:1009D000BFF35F8F2368AB4230D0BFF35F8F5B46BE
:1009E0003B6089F31088534625686668280031000B
:1009F000002BE5D100F0F2FDE4E70AF0D3FCCBE7F1
:100A000025DB00201CDB002070140020C800002023
:100A1000D80000201DDB002000000640300100D07F
:100A200000000340FFFFFF00FFFFFF7F008000404A
:100A3000C0000020001C0420002004206368B34292
:100A4000CBD1009A019B1000190080185941484BE6
:100A5000DA690123134003430093019100F0D0FEB3
:100A60000A22002380185941002949DB039B20609A
:100A70006160012B3AD1009801993E4F386079604E
:100A8000BFF35F8F00233C4D2B6089F31088FFF785
:100A9000C9FD089B584043465B680890594043464F
:100AA000596000F0ADFEFFF7BDFD43469B6858401E
:100AB0004346DB68594043469860D960EFF310869F
:100AC00072B62B68002BFCD0BFF35F8F2B4B1B78CB
:100AD000002B19D02A4B03932A4B0493BFF35F8F4B
:100AE0000022254B1A6086F3108825E6BFF35F8F3E
:100AF00000233B6089F31088039B013B039356E777
:100B0000012021494042B1E7204BDA681F2A23D057
:100B10005A691F2A22D0DA691F2A25D05B6A1F2B47
:100B20001FD00AF03FFCFF22FF231549DB000A70AB
:100B3000174A03919446052263445A604046FFF7E2
:100B40009FFD104B10221800414604930BF00EF944
:100B500001230A4A1370C1E700230393039BDAB20F
:100B6000E3E71C3B0393F9E702230393F6E7C04650
:100B700000000640D8000020300100D025DB002016
:100B80001CDB0020C8000020FFFFFF7F00000340A7
:100B90000800034010B5FFF7BBFD10BD10B50248BB
:100BA00000F0E0F810BDC046C4D9002010B50822FE
:100BB00001490BF0DBF810BDC4D9002030B54B1E45
:100BC000012900D1A7E0664A11780D112C003034BC
:100BD0009F2900D9A2E00470012B00D1BEE00F21B3
:100BE000147821400C003034092900DD98E044706D
:100BF000022B00D1B2E054782511290030319F2C0E
:100C000000D990E08170032B00D1A7E00F21214093
:100C10000C003034092900DD87E0C470042B00D1BA
:100C20009CE094782511290030319F2C00D97FE079
:100C30000171052B00D191E00F2121400C003034CF
:100C4000092900DD76E04471062B00D186E0D478D6
:100C50002511290030319F2C00D96EE08171072BBE
:100C600000D17BE00F2121400C003034092966DCE3
:100C7000C471082B00D171E014792511290030319D
:100C80009F2C5FD80172092B68D00F2121400C00E6
:100C90003034092958DC44720A2B5FD0547925116D
:100CA000290030319F2C52D881720B2B56D00F2146
:100CB00021400C00303409294BDCC4720C2B4DD080
:100CC00094792511290030319F2C00D90731017307
:100CD0000D2B43D00F2121400C003034092901DDB8
:100CE00037310C0044730E2B38D0D1790C1122000F
:100CF00030329F2900D9073282730F2B2ED00F225A
:100D00000A4011003731092A01DC30321100C17369
:100D1000102B23D010300023037030BD07345AE766
:100D200037310C0063E707316CE737310C0074E7AB
:100D300007317DE737310C0085E707318EE7373122
:100D40000C0095E707319DE737310C00A3E7073129
:100D5000AAE737310C00C4720C2BB1D1C018DAE706
:100D6000C4D9002030B5002589B004000922002133
:100D700001A800950AF0F4FF0922002105A80495B6
:100D80000AF0EEFF4B236A466846137004A90D2251
:100D90000FF0B2F815210822200069440AF0E6FF9E
:100DA00009B030BDEFF3108072B6034A1368002B10
:100DB000FCD0BFF35F8F70472C0100D0BFF35F8F73
:100DC0000022024B1A6080F3108870472C0100D07B
:100DD00070B5EFF3108C72B60D4D2B68002BFCD064
:100DE000BFF35F8F0724CB08C618C05C01230C40FB
:100DF000A3401C000440034207D103433370BFF3F8
:100E00005F8F2C608CF3108870BD1000FFF7F2FB31
:100E10002C0100D0F8B54746CE46884680B5EFF3A2
:100E2000108C72B6214D2C68002CFCD0BFF35F8F64
:100E30009A422CD8D4080727055D061901241740CB
:100E4000BC402C421FD007210127894609E0D40865
:100E5000055D06194C4639001440A1400C0029429A
:100E600011D001329342F2D201204042BFF35F8F92
:100E700000220E4B1A608CF3108800280FDBC0BCD8
:100E8000B946B046F8BD2C4310003470EEE7BFF30E
:100E90005F8F00232B608CF3108801204042434673
:100EA000002BECD00898FFF7A5FBC0462C0100D022
:100EB00030B5EFF3108C72B60A4C2368002BFCD0CF
:100EC000BFF35F8F07230122CD0819408A40435D9D
:100ED00093434355BFF35F8F002323608CF3108847
:100EE00030BDC0462C0100D0044A1078431CDBB250
:100EF000172B00D9102313707047C046A81100208B
:100F000000B5054B83B00100009318221F2303484E
:100F1000FFF780FF03B000BD8C000110581D0020BA
:100F20000021044B044ABFF35F8F02C39342FAD1FE
:100F30007047C046000100D0800100D0142310B5D6
:100F40000100188804331B88984710BD162310B57C
:100F50000100188802331B88984710BDF8B5474632
:100F6000CE4680B50F1E19D01423994604330400D1
:100F70000025012698464B461888434621681B8861
:100F8000984701C4431E9841013540420640AF4294
:100F9000F1D13000C0BCB946B046F8BD0126F8E733
:100FA000142370B50400188804331B880D0005490C
:100FB000984703000020002C01DB0130A0402900ED
:100FC0009847C046554200000A4B1968EFF310805D
:100FD00072B60A68002AFCD0BFF35F8F1B68BFF3AC
:100FE0005F8F00221A6080F3108840BF002000212C
:100FF0007047C046D0DA0020F0B5DE4657464E4670
:101000004546E0B585B0EFF30582032313409A000F
:1010100011000392B64A5258904601229A409146D6
:10102000B44B1A604B46B4484363434608229B5E68
:101030009A46002B3DDA43469B881BB2002B00DB0F
:10104000A1E043469B79002B00D0F3E043460824FF
:101050001C5F002C23DB42465269630094461B1937
:10106000DB0063449C68DD68631C00D10FE1A2488B
:10107000039984466144826A0B69A61A9B1A9E42B0
:1010800015D34A46036A1A4211D09B4800F0B0FBC0
:10109000241A8D41002D02DCC4D1002CC2D040BFE7
:1010A00005B0F0BCBB46B246A946A046F0BD0C61F7
:1010B000EBE7424652695B0093465344DB009B4496
:1010C0005B469E68DF6800F093FB801BB9410029F6
:1010D000B1DB002F00DAE5E05B46884A1B699342EA
:1010E00000D1D8E041465A460820085E52880004E4
:1010F00010435A465169984704000D0023002B43C2
:1011000000D1CFE0002D00DBE8E0361BAF4134001A
:101110003D005B469C60DD600021595E002900DADD
:1011200089E743465B6922009C462B004800401833
:10113000C00060448668C768921BBB41002B00DA80
:1011400079E74346664602000094019519810CE058
:101150007B00DB19DB00F318009801999C68DD68BF
:10116000001BA941002904DB1A000023D75E002FD1
:10117000EEDA5B461F805346138043469B881BB2C2
:10118000002B00DA5DE743461A69EFF3108172B66F
:101190001368002BFCD0BFF35F8F43469B88424609
:1011A0001BB29A4601235B4293801369BFF35F8FA2
:1011B00000221A6081F310885346002B00DA40E7C2
:1011C00043465B699C46082343449B4653465F0065
:1011D00043465744FF0008229A5E67445E46BC6857
:1011E000FD68002A19DB3B000094019567469C4688
:1011F00004E01E000023F25E002A0BDB0098019938
:1012000053009B18DB00FB189C68DD68001BA9419C
:101210000029EEDA6346BC461F00534633800021A6
:101220007B5E3A809A46002BD0DA43469B79002BAE
:1012300000D10BE7002342469371434646460821FE
:10124000595E08364B1C00D129E747468C46556944
:1012500002E006004B1C17D04B005B18DB00E818BF
:101260000A00E95E43881BB2002BF2DA01235B42DD
:10127000DC178360C4606245ECD031803B899446C2
:1012800003803A814B1CE7D1B8466446E1E66B1C0B
:1012900000D0ECE6F9E65B465C69200023699847DC
:1012A000002821D15B4642461B8813811269EFF367
:1012B000108372B611680029FCD0BFF35F8F4246DD
:1012C000594652880A804246514651801269BFF3FE
:1012D0005F8F0021116083F31088ACE6064800F0B0
:1012E00087FA24184D4114E76568246806E7C0466C
:1012F000E8C900203C70054000400540F90F00108F
:1013000070B52E4C2569002D04D00A212C4800F020
:1013100077FD70BD2B4E0321300000F05FFAE660D0
:10132000FFF7E2FD284B03229C46D02322701B06C8
:101330001B6801216370254B6044A3600F2380006C
:1013400020610220638063694942A18019800231D3
:10135000198647311D83585218315A5275325C39FB
:10136000995218320131995218320131995218327A
:1013700001319952083518329D5202311832995272
:101380001832013199521832013199521832013113
:1013900099521832013199521832013199520C4B3D
:1013A0000C49DC600130356200F08EFA0121032027
:1013B00000F052FA084B1D60A7E7C046AC110020B0
:1013C000D0DA00200040054040000034FFFF10004C
:1013D000E8C90020F90F0010386005400048704748
:1013E000AC110020F8B51F0008AB1B7804001600F4
:1013F000002B07D100F004FA32003B00121A8B4197
:10140000002B4CDB2269EFF3108072B61368002BBF
:10141000FCD0BFF35F8F62690223E15E94464B000C
:101420005B18DB006344002901DB1A8862802269B3
:10143000BFF35F8F0025156080F31088002930DB33
:10144000069A9E60DF601A61079A5A615A880132D3
:101450005204520C161C002A1FD0B0B20A045E803F
:1014600010432669EFF3108572B63268002AFCD06B
:10147000BFF35F8FA2881A80A1802369BFF35F8FBB
:1014800000221A6085F31088074923788C460132C0
:101490009A40E36863441A60F8BD0126DDE7002046
:1014A000FAE701204042F7E73C20000070B5C6464D
:1014B000010000B50469EFF3108C72B620680028B3
:1014C000FCD0BFF35F8F02200D5E48696C00804640
:1014D0006419E4004444002D01DB20884880086939
:1014E000BFF35F8F002606608CF31088002D30DB81
:1014F000E36063880598013320615B0406985B0C08
:10150000A26060611A1C002B21D090B22B04628073
:1015100018430A69EFF3108672B61368002BFCD0EB
:10152000BFF35F8F8B8823808D800B69BFF35F8F44
:1015300000221A6086F310880B7801329A40CB683B
:1015400005498C4663441A6040BCB04670BD012218
:10155000DBE701204042F7E73C20000010B543895B
:101560000A14934233DD53009B184269DB00944612
:1015700004696344EFF3108C72B62268002AFCD031
:10158000BFF35F8F5A88090494B2090C8A4208D0CD
:101590000369BFF35F8F00221A608CF3108800206C
:1015A00010BD8022120214435C8001230269837102
:1015B000BFF35F8F002111608CF31088054902781A
:1015C0008C469340C268012062441360E8E7002023
:1015D000E6E7C0463C20000040787047F0B50400C4
:1015E0000D0006267642F717C64636196F4100B53C
:1015F00082B08F4214D811D000F002F932003B00C3
:10160000121A8B41002B15DC002B44D0200029003E
:1016100000F000F902B080BCB846F0BD8642EBD9BC
:101620000026002700F0ECF832003B00121A8B4134
:10163000002BE9DD00F0E4F832003B00121A8B4188
:10164000002B0ADB00230193144B32000093144853
:101650003B00FFF72BFF0028D8DBB0460026BC4636
:10166000104A114F7B6A9C4504D8B96A8845CDD988
:101670009C45CBD11168EFF3108072B60B68002B3C
:10168000FCD0BFF35F8F1368BFF35F8F1E6080F3E2
:10169000108820BFE6E7002AB8D0CBE7C90F0010BA
:1016A000AC110020D0DA00200040054070B50600E3
:1016B00000F0A6F8FA2204000D00002330000021FB
:1016C00092000AF0F7FA00196941002902DBFFF7DE
:1016D00085FF70BD012001494042F8E7FFFFFF7F11
:1016E000F0B5CE46474680B504000D0083B0EFF359
:1016F0000587002F0DD0364A0020536A8B4203D352
:10170000926A0130A24250D303B0C0BCB946B04681
:10171000F0BD304B9846DB689946434648461E78F4
:1017200000F066F80B00494602000436B600715816
:1017300020008E1A2900801A99418F4211DC0ED0A8
:1017400020BF234A0020536AAB42DDD3926A0130A6
:10175000A242D9D2E81A421E9041C0B2D4E78642D2
:10176000EED900F04DF822002B00121A8B41002B0D
:1017700020DB00230193184B2200009340462B00EE
:10178000FFF794FE011E15DD114B2E005A6A95429B
:101790001CD89B6AA34217D34046FFF7DFFE0C4AD2
:1017A0000020536A9E42AFD8D0E7581A421E90419B
:1017B000C0B2A9E7064A0020536AAB42A4D3926A9A
:1017C0000120A242A0D2C5E79542E5D120BFE3E7C0
:1017D00000400540AC110020C90F001010B5024AAE
:1017E0000248FFF7F5FA10BDB00001105C1D0020A3
:1017F0000300416A0A00986A596A8A42FAD170471E
:10180000034B596A0A00986A596A9142FAD17047A3
:1018100000400540064A536A9942FCD807D1044B60
:1018200002E05A6A914202D19A6A8242F9D3704721
:1018300000400540054B064A1360064A136053609A
:101840009360D3601361536193617047808080809F
:1018500000E400E004E400E01F2318401E3B834046
:10186000002905D0C021044A490053501360704735
:10187000802201498B50FAE700E100E0012282401A
:10188000034B1B6813405A1E9341D8B27047C046A1
:1018900000E100E001238340014A13607047C04625
:1018A00000E200E0064B10309B688000C358054AF8
:1018B00000209B1A2F229A424041C0B27047C04676
:1018C00000ED00E0C411002070B50D00EFF31086AC
:1018D00072B60F4A1368002BFCD0BFF35F8F0D4B1D
:1018E00010309B6884001B590B4A934203D09D42E1
:1018F00001D009F057FD074B9B681D51BFF35F8F67
:10190000BFF35F8F0022024B1A6086F3108870BD10
:10191000240100D000ED00E0CD010010F0B55746E5
:101920004E46DE464546E0B585B0060002911700FA
:10193000EFF3108B72B6674A1368002BFCD0BFF32D
:101940005F8F0025644B5D579A46002D00DAA4E0B6
:101950006B00624C03935B199B009846A146C144FF
:101960004B4652469B79103613705D4BB2009B6814
:10197000019299580B1B2F2B34D95A4B994200D006
:10198000A4E0039B584A9C46584B6544AD00635302
:10199000434602336519E418554B0121043B1B1BD8
:1019A0001B055B0D13436B80524BEF71AB80FF2324
:1019B000AB71029BAB604B460B431900484B019A3D
:1019C0009B689950BFF35F8FBFF35F8F0022414B3D
:1019D0001A608BF3108805B0F0BCBB46B246A9462E
:1019E000A046F0BD01200A008243D379BB422FD824
:1019F00045464E46130040491B1B5B415943090DA8
:101A00003A4B63533A4B02356519043B5B1B1B058C
:101A1000354D5B0D2B4373800426B446E0444444AB
:101A2000131F1B1B4C46A17102991B05A16049465F
:101A30005B0D2B43A380314BE77101431360BDE77E
:101A40005800C01880002018C679BE422BD9020069
:101A50000623D356002BF3DA101D82462848804611
:101A600004267642B446E14450464E46361A3005C6
:101A7000400D824656461C48957106439680039A4F
:101A8000944665441D4AAD00641922604246A37124
:101A9000029BA280E771A36090E709F083FC002518
:101AA00053465D5754E7101D824690884005001547
:101AB00084464046D444664604302018301AE02656
:101AC0000005400D360230438046C9E709F06AFC44
:101AD00057E7C046240100D020DB0020C4110020BD
:101AE00000ED00E0CD01001000E0FFFF00A1FFFFCE
:101AF000F411002001BDFFFFAAAA000001488047A1
:101B000001BD0000F0B5DE4657464E464546E0B5FD
:101B10000C0083B0EFF3108972B65F4A1368002B94
:101B2000FCD0BFF35F8F5D4B9A68030010339F00BA
:101B3000D5595B4A904695423DD0A5424ED0594E6C
:101B4000AA1B2F2A37D8584A934612689446012276
:101B500061469246824011401F2210405246824008
:101B6000924601918022514658468150BFF35F8FC3
:101B7000EFF305829346002A32D101232A009A43CB
:101B80009068844208D17CE04B005B189B00F318FE
:101B9000986884422ED01A00062151560029F3DAA3
:101BA00084424DD0019B002B1FD0C02251463E4B9A
:101BB000520099501960394B9B68DD51BFF35F8F1C
:101BC000BFF35F8F0022344B1A6089F3108803B093
:101BD000F0BCBB46B246A946A046F0BD1500EAE7F8
:101BE0009342CAD009F0DEFBC7E7802351462E4A54
:101BF000D150E0E706215956002922DB4A0050184F
:101C0000800034188046A0689860E079D87106207A
:101C100020569871002825DBA488F01A6405241545
:101C200044440019E0240005400D2402204398801C
:101C300052181E4B9200B6181A781970B271B1E79B
:101C40001300594600290FD1FF3191711849918035
:101C500016490A789A71174A9B1B5B415A43120D29
:101C60000A709FE71448E2E7144A1549D21A083A65
:101C70005002400D01439980124952080A43DA800C
:101C800090E70621515613000029B7DA5A46002A78
:101C9000EAD14546DCE7C046240100D000ED00E073
:101CA000CD010010C411002000E100E020DB002085
:101CB00001BDFFFFAAAA000001BD0000FE11002027
:101CC00000F0FFFF00F8FFFF10B5830804000320B9
:101CD0002040FF24054AC0009446844081409B0078
:101CE00063441A68A2430A431A6010BD00E400E08E
:101CF00070B501240443EFF30581EFF3108C72B645
:101D0000214A1368002BFCD0BFF35F8F1F4B0500E7
:101D10001F4AED1A6D416A43120D1E4D8900AE68CF
:101D200052B27658A6421CD00621595691421CD078
:101D300012215956914222D01E215956914220D04B
:101D40002A2159560324914210D0134B19781A7046
:101D50008171BFF35F8F00220B4B1A608CF31088E8
:101D600070BDAB680D4C5C50EFE7002461000919B1
:101D700089005B18FF21997109499980E5E70124E1
:101D8000F4E70224F2E7C046240100D0C411002089
:101D9000AAAA000000ED00E020DB0020CD01001029
:101DA00001BDFFFF1F2110B5091A0248FFF780F897
:101DB00010BDC04629DB002000B5074B83B00100F1
:101DC0000093002205230548FFF724F8002801DBD3
:101DD0001F23181A03B000BDD400011029DB002016
:101DE00070B504000E001500FFF77EF8010020001A
:101DF00000F006F8A680E580BFF35F8F70BDC04697
:101E0000024B9C46614489000160704740000034E9
:101E1000F8B5134D134E2C00FF27B5421ED2236890
:101E2000002B0FD0FFF760F801002800FFF7E8FF54
:101E3000A780BFF35F8F0834B4420FD22368250018
:101E4000002BEFD1FFF750F801002800FFF7D8FF73
:101E50002771BFF35F8F0834B442EFD3F8BDC0469B
:101E600098120020A012002010B50400FFF73CF8E3
:101E700001002000FFF7C4FFFF232371BFF35F8F32
:101E800010BDC04610B50400FFF72EF80100200079
:101E9000FFF7B6FFFF23A380BFF35F8F10BDC046DF
:101EA00010B504000120FFF72BF8044B9C4660445A
:101EB00080002060BFF35F8F10BDC046400000343B
:101EC000034B9C46614489000160BFF35F8F7047FC
:101ED00040000034F8B5DE464E4657464546E0B56C
:101EE0008B4605000A991800160009F067FB0A9B4B
:101EF0006C001F02324B64199C46A4006444636862
:101F000081469F4200D967602B1FDBB29846012BA8
:101F100030D9C02380229B01E31812011A60294B9B
:101F2000AD0059599A4600291BD1226876017240AA
:101F3000E0268023164042465B01E3181E60012A1A
:101F400030D9802380229B01E31812011A60534686
:101F50004A4667605A51F0BCBB46B246A946A04605
:101F6000F8BD586909F02AFB431C5800C018033813
:101F7000FDD2DAE75B46012BCBD1C02303229B01C4
:101F8000E3181A60023AA3681A42FCD0E0232268E0
:101F9000760156401E4080230A4A5B019246E318B0
:101FA0001E60AD005A462168514003220A401A6063
:101FB00001225B469A40A3681A42FCD0C1E7C046A2
:101FC00000800040641D0020F0B546464F46D646CE
:101FD000C0B51F00344B44009C462418A400644440
:101FE000636888461600FF2B02D880235B0063607D
:101FF000031FDBB29A46012B30D9C02380229B01FC
:10200000E31812011A60294B850059599946002995
:102010001BD1226876017240E0268023164052468A
:102020005B01E3181E60012A30D9802380229B01C6
:10203000E31812011A6080235B0063604B465F5116
:10204000E0BCBA46B146A846F0BD586909F0B6FAF8
:10205000431C5800C0180338FDD2DAE74346012B71
:10206000CBD1C02303229B01E3181A60023AA36874
:102070001A42FCD0E0232268760156401E4080239D
:102080000A4A5B019146E3181E60850042462168BA
:10209000514003220A401A60012342469340A2683D
:1020A0001342FCD0C1E7C04600800040641D002000
:1020B000014B8000C0587047641D002010B54024BB
:1020C000084A83009A181268C0005440C022224077
:1020D000054CA44663441A60044B9C46604441602E
:1020E00010BDC04604C0014004D001400040014082
:1020F0000B4B80009C46604400290ED10023043124
:10210000002A00D1190080220368520159409446E8
:102110000C2360440B40036070470C210823EFE759
:1021200004C001408000002905D0064B9C460223D4
:10213000604403607047044B9C4602236044036084
:10214000F8E7C04604E0014004F00140D0231B063C
:102150001B6830B50500581E834110485C42844618
:1021600007203023284023408000EC0881402000D5
:102170000B4D3C3063448000A40041511B19002AE0
:1021800005D08022920194466344196030BDC0227C
:102190009201944663441960F8E7C046004101404B
:1021A00000400140D023F0B5C64604001B06984607
:1021B0001B680C4F9B00F8580D00160000B5044238
:1021C00009D1044332002900FC500D20FFF7A6FB83
:1021D00080BCB846F0BD09F0E5F843461B689B009B
:1021E000F858EEE7B4D9002010B504000D20FFF731
:1021F00089FCD0231B061B6802499B005A58A24346
:102200005A5010BDB4D900200123D0228340402170
:10221000120693629361094A83009A181268C000FB
:102220005140C0220A4006498C4663441A60054B5F
:102230009C460523604443607047C04604C001408B
:1022400004D0014000400140F8B5040020481D00C2
:1022500017000E0009F0B2F90100380009F0AEF9DC
:10226000069B29041B0319432368002B1EDB194B13
:10227000194DE21853425A4180235B019C461203D8
:10228000164B62441A60164B1A6017002B689F4366
:10229000FBD1144B2660E2182123A0601360236851
:1022A000002BFCDA0823E1601360F8BD3F232268AD
:1022B0001340B342DBD1A3681B051B0D8342D6D16B
:1022C000EE22E368D20213408B42D0D1EDE7C04644
:1022D000001BB7000040FDBF08C0004000E0004008
:1022E00000F000400430000010B5140080221B4BA9
:1022F000D2051A6000281AD00123194A1843194B35
:10230000DA61194A42401A62596298628022134B7C
:10231000D2051A601549164A1160E022D2041A60EB
:10232000002C07D18022134B12061A6010BD0D4BF2
:10233000D861EBE763011B1B9A008023121912017D
:102340005B049A4200D30C4A0C4B1A60054B5A604E
:102350008022084BD2051A60E8E7C04600B005406D
:10236000D3C007B0008005402D3FF84FFCFF0100AF
:102370000820014000A00540FFFFFF005030002072
:102380008023024A9B000B43D362704700800540C4
:10239000AA23064A1B0113608D235B00D360044906
:1023A000044B19605368002BFCDA70470040024070
:1023B00000B0FA000060024010B501F08FF900F0A3
:1023C000E9FA00F0ADFC00F053FD02F0FDFE01F073
:1023D00015FA00F057F902F067FE10BD40BA80B25E
:1023E0007047C04600BA7047F8B54746CE4680B53C
:1023F000070104003818000110308146404D414E5D
:102400002B688846B144002B02D02A7AA24258D0C9
:10241000EB68002B02D02A7DA2424BD0AB69002B87
:1024200003D02022AA5CA2423DD06B6A002B03D0CD
:102430002C22AA5CA2422FD03B191B01F318DB7B94
:10244000002C04D0B27A022A41D0012C06D08D2271
:102450005200B25C022A43D0022C05D02A4AB25C58
:10246000022A43D0032C03D0284AB25C022A42D06D
:10247000032B0DD8264D9B00585903F06DF8002210
:102480003C1924013619F37B9B005A510423F37342
:10249000C0BCB946B046F8BD41464846AA6A98470E
:1024A00000236B62C8E741464846EA699847002323
:1024B000AB61BAE7414648462A6998470023EB607A
:1024C000ACE748466A68984700232B60A0E7F27B98
:1024D0009A42BAD104233C1924013619F373D7E781
:1024E0002022FF32B25C9A42B6D1F3E7094AB25CCD
:1024F0009A42B7D1EEE7084AB25C9A42B8D1E9E70E
:10250000AC270020E42700202A0200003A03000044
:102510009C2700202F0200003F030000F0B5DE469C
:102520004E46574645468346E0B5030187B04F4ABD
:1025300001935B441B01D618F27A012A00D992E07C
:102540004B4992008C58002C00D17FE010331D00C5
:10255000464B9C46654428000DF05AFCA0221230E0
:1025600081B29200362000F0CBFD8146002866D073
:1025700003AC0C220021200009F0F2FB3089FFF7A8
:102580002DFF01232080A3700C22FF332100484639
:10259000A38000F0D9FF374B0C269A464F46013DE9
:1025A0006B1C98466B78002445462E2B06D156E0CE
:1025B0006B7801340135E4B22E2B01D0002BF7D11A
:1025C0004346EB1A9BB299462300F318534542DC6D
:1025D00022003100380001F053F8731C4A469BB2C8
:1025E00034194146380000F0EBFFA3B22A785E1C94
:1025F000B6B2002AD4D11C003100380001F040F8F6
:102600001D4B02340422029302A9A3B2380000F049
:10261000D7FF164A019B944615495B441B0163444E
:102620008C46DA7ADB7B15499B009200585862444D
:102630003523390002F01AFF380000F067FE07B0BA
:10264000F0BCBB46B246A946A046F0BD0021FFF74C
:10265000CBFEB472F3E7380000F058FEEFE700223B
:1026600000239146B1E70648FDF7C4FFE4270020A8
:10267000DC270020FEFF0000000100019C27002055
:10268000F00001107047C04682B0012801D902B0A5
:1026900070478000002903D00A68044BC250F6E757
:1026A000034A024B12680192C250F0E7DC27002077
:1026B00068110110F0B546464F46D646464BC0B5A8
:1026C000464E8D273400002598467F00A37A022BC2
:1026D00035D02CD8002B1FD0414B9946414B9A4600
:1026E000FEF758FAB37A80B2022B40D0F35D022B8A
:1026F00043D04B46F35C022B48D05346F35C022B8D
:102700004DD002230122A37200232081E37228000E
:1027100022736373FFF702FF01351134EDB2FF340A
:10272000042DD3D1E0BCBA46B146A846F0BD032B78
:102730004ED12368002B13D10023A372ECE7237B37
:10274000013BDBB22373002BE6D1637B0133DBB2A9
:102750006373042B29D023732800FFF7DFFEDBE728
:10276000013B2360002BD7D10023A372D4E7338928
:102770008342B5D0F35D022BBBD11733FF33F35A3D
:102780008342ADD04B46F35C022BB6D18A239B002B
:10279000F35A8342A4D05346F35C022BB1D1CE232B
:1027A0009B00F35A8342ACD19AE7E37A002B08D11D
:1027B00042465268002A04D001226373E2722273F7
:1027C000CAE700212800FFF70FFE0023A372A3E74A
:1027D0000548FDF70FFFC046DC270020E427002056
:1027E0002A0200003A03000024010110F0B583B072
:1027F0006B469C1D0023238001331E0006401842B7
:1028000005D0002903DD037801396370013003220C
:1028100013000340104205D00023012938DD03884E
:102820000239023007294BDD083907220F00974390
:10283000020005000832BF182A689A189A429B4184
:102840005B42D2186B680835D318934292415242CA
:102850009B18AF42F0D1CA08551CD200ED00891A6E
:102860001A044019120C1B0C9B18012910DD028858
:102870009B188A1E012A05DD45885B19052901DDA3
:1028800081885B1851084D1C6D0049004019511A90
:10289000012901D1027822702288D218130C120467
:1028A000120C9B18180C1B041B0CC018002E04D013
:1028B000030600041B0C000E184380B203B0F0BDE9
:1028C0001A00D0E7F0B54F46D6464646C0B5914609
:1028D0001A68089B8A46196804000B041B0C090C33
:1028E0005B181104090C5918130C5B18180C1B0405
:1028F0001B0CC318180C1B041F0CC719002C21D06B
:10290000FF2300260125984661896068FFF76EFF66
:10291000C019030C0004070CDF1963891D4207D09E
:1029200042463B06380A1B0C104003431F006E4012
:102930002468002CE8D1002E04D03B063F041B0C79
:102940003F0E1F43534698B2FFF748FD0400484628
:10295000FFF744FD2018C019030C0004000C1818E0
:10296000030C0004000C1818C04380B2E0BCBA4647
:10297000B146A846F0BDC04610B582B0049C009494
:10298000FFF7A0FF02B010BD10B5FFF72FFFC04347
:1029900080B210BD03220A4B002103339343094A3E
:1029A00009481360FA221201197199180160012077
:1029B0001A60087105499950054A13607047C0466E
:1029C00000CA0020F8C90020FCC90020A00FA00FF9
:1029D0004C300020F0B5D6464F464646C0B50028DC
:1029E0005DD0830700D069E00300394A083B1268D4
:1029F0009A4260D837490C30096881425BD3187914
:102A0000002861D0FA201D88000185420CD85C881E
:102A1000A246844208D8981A80B280461619A0426D
:102A200005D03088404502D02B48FDF7E3FD501912
:102A3000814202D044884445F6D100241C71274CC1
:102A4000A44624689C4202D9644623601C00994233
:102A500037D9834213D00779002F10D181420ED08D
:102A6000A04224D005881D800188FA2000018142FF
:102A700005D040465118488059888A465618B342B6
:102A80000DD0317900290AD1A3420DD0FA21358029
:102A90001B8809018B4202D0D31852465A80E0BCF1
:102AA000BA46B146A846F0BD61460E60EEE7614603
:102AB0001C000B60D6E70A48FDF79CFD0948FDF7AE
:102AC00099FD0948FDF796FD0848FDF793FDC046BE
:102AD000F8C90020FCC90020AC0101104C300020D6
:102AE0006801011044010110E0010110840101108E
:102AF000F0B5C6463B4BCA1C00B513400B2B3FD963
:102B0000FA22120193423ED899423CD8364A1468C0
:102B100084425ED8354A126882425AD90500083D7F
:102B2000291B8AB290462E8841463200083A521A32
:102B300092B29A4250D320D0A7193979002924D1D2
:102B4000FA22120196424AD03A88294E94464246C9
:102B500008329B1832689BB2BA4237D0E2186146FD
:102B60001180414600265180FA2116712B8012886F
:102B700009018A4201D0A218538080BCB846F0BD3A
:102B80000C239942C2D90020F7E71F001437BFB2C7
:102B9000BA42F2D3424608329B18FA229BB2120183
:102BA00096421CD0124FE2183968914200D93A601F
:102BB000414600275180FA21177116802B80128818
:102BC00009018A42D9D0A4186380D6E7E21832609E
:102BD000C5E70848FDF70EFD0748FDF70BFD074860
:102BE000FDF708FDFCFF0000F8C90020FCC900202B
:102BF0004C300020FC0101101402011034020110BD
:102C0000F0B5D6464F464646C0B500282FD03D4CBD
:102C1000C31C1C400B2C30D9FA231B019C4226D824
:102C2000A04224D8384BFA229C461B6812019A46CF
:102C3000364B121B1E6853469B1B98B21B049046D2
:102C40001B0C9A4213D908277F4208E01588FB1A0B
:102C50005B19A34213D22B002800434507D2F21878
:102C600011790029F2D0108803004345F7D30020E2
:102C7000E0BCBA46B146A846F0BD0C24D0E7142704
:102C8000B846A0444746BFB2BB421CD20123083419
:102C90001371A4B21E4B1868130092450ED0A418ED
:102CA000A0422CD3100008309307E1D01948FDF75B
:102CB000A1FC1B88F318197900291AD09842F8D181
:102CC00063461860EBE7FA270834A4B203193F0102
:102CD0009BB2B946BB420FD0F718397101213D8034
:102CE00078801380117139884945D3D071184B8091
:102CF000D0E761460B60D2E70748FDF77BFC074849
:102D0000FDF778FCFCFF00004C300020F8C90020E3
:102D1000FCC90020780201103402011048020110A1
:102D200024230022F0B54746CE469046994603320A
:102D30000425944680B5124F124B134CB9444146BA
:102D40003A682160614603338B43002D0BD016880F
:102D50000021002200E003000132196098191900D7
:102D60002360AA42F7DB0437B94504D03A68946877
:102D700053685588E3E7C0BCB946B046F0BDC046CD
:102D80006C0301108CC10020B4C9002010B50828C4
:102D900010D80B4B8000C458FDF750FBA3681C688B
:102DA000002C03D022681A60A30705D1FDF748FB69
:102DB000200010BD0024FBE70248FDF71BFCC046C5
:102DC0006C030110BC02011070B50C0008280ED86D
:102DD00000290CD0084B8000C5588B0708D1FDF79F
:102DE0002DFBAB681A6822601C60FDF729FB70BDE3
:102DF0000248FDF7FFFBC0466C030110E002011022
:102E000070B505000C00160082B000292AD0436876
:102E10000A689A4201D102B070BD3360300001A946
:102E2000019201F0B1F9300001A902F0C1FB01A942
:102E3000300000F033FC392322686A60E95C343BDF
:102E40000B40052B05D0EB69002BE4D028009847F8
:102E5000E1E7002AF7D00B07F5D52800291D04F07B
:102E6000D9F8F0E70148FDF7C5FBC0469003011013
:102E70007047C046F0B504000D0016001F0083B077
:102E800000294ED0002E4AD0002F46D02B680022B9
:102E9000002B0CD03368A1688B4200D0A3603B6844
:102EA000E1688B4230D1002A31D003B0F0BD6168B7
:102EB00001220029EED06846009101A9019301F09A
:102EC00063F9684601A902F073FB01A9684600F0A6
:102ED000E5FB39232A686260E15C343B0B40052B3B
:102EE00007D1002A05D00B0703D52000211D04F0CF
:102EF00091F8E369002B01D0200098473368A1685E
:102F000001228B42CBD0C9E7E360002ACDD16A46CB
:102F100029002000FFF774FFC7E7034FB6E7024E12
:102F2000B2E7014DAEE7C0466811011070B5041E4E
:102F300016D04368002B17D139220121A35C194216
:102F400024D11D4B1A68A2422ED01C4A1368A342FA
:102F500004D126E01A68A24203D01300002BF9D155
:102F600070BD22681A60FBE7051D0021280001F0F2
:102F70000BF90021280002F01BFB0021280000F0C3
:102F80008DFB39220121A35C1942DAD01800884355
:102F9000A0541B070BD4E369002BD2D02000984724
:102FA000CFE723681360DBE700221A60CDE720003B
:102FB00003F06CFFEFE7C046D0C90020D4C9002061
:102FC00070B5041E03D03925435D5A0700D570BD86
:102FD00004221343435503F06DFA0523625D134049
:102FE000052B05D0236A002BF1D020009847EEE78F
:102FF0006368002BF6D01307F4D52000211D04F0E0
:1030000009F8EFE710B500280AD039220421835CC3
:10301000194205D08B438354036A002B00D0984794
:1030200010BDC046021E0ED0084B1868002809D0FB
:103030003C2102E00068002804D0435C0133DBB28D
:103040009342F7D170470020FCE7C046D4C9002066
:10305000F8B505000026002826D00F270BE0012B2D
:1030600024D0002B2AD12800FFF7B4FC0136F6B299
:10307000002C19D02500FDF7E1F9AC7B002C1AD00B
:10308000013CE4B2AC73FDF7DBF9002C0CD12B7BD7
:103090002C683B40022BE2D1290008200136FFF7C3
:1030A00093FEF6B2002CE5D13000F8BD29000720D0
:1030B000FFF78AFEDAE70348FDF79CFA0248FDF7BE
:1030C00099FAC046A0030110B803011010B5FDF72E
:1030D000B5F90022084B1A70FDF7B2F9074B1868D2
:1030E000002803D107E0C068002804D0436F002BFC
:1030F000F9D001F097F810BD24DB0020DCDA0020C5
:10310000F0B5C1234F464646D6468046C0B50D00B1
:10311000170084B25B009A423FD008D81400433BAA
:10312000FF3B9C43012C6AD03C48FDF763FAA02387
:103130009B009A42F8D1E31C0324CA1CA343A24378
:103140009B189BB21800103080B293421ED382426B
:103150001CD8FFF755FD061E19D000230360434617
:10316000C71813372E4B2904A7430D4347608560CA
:10317000C3600CE0FDF762F901222A4B1A70FDF7DB
:103180005FF9002E02D03000FFF762FF002630000A
:10319000E0BCBA46B146A846F0BD00239846224B93
:1031A00000269A4600230327994607E043466D1AF6
:1031B000ADB21860002DEAD0804600240820FFF749
:1031C000E5FD0028D6D05246E31CBB43D31A1A1C97
:1031D0009BB2AB4200D92A1C4B460419036013343E
:1031E000124BBC4391B2446005814281C360002E02
:1031F000DCD16D1AADB20600002DDDD1C7E7072086
:10320000FFF7C4FD061EC2D0002329040D4303604E
:103210004360856007734373C481B8E7CC03011032
:103220008000010024DB0020EC050000820001008A
:1032300070B5041E34D002898A421CD90D008A1A46
:1032400007E023896D1A9B1823812468ADB2002CF6
:1032500020D06189A942F4D3237B1B0701D1A94265
:103260000AD1290420682943A160002801D0FFF772
:10327000EFFE0023236070BD63682000191B6918EE
:1032800089B2FFF735FC002807D08442E9D0064810
:10329000FDF7B0F90548FDF7ADF90548FDF7AAF9C6
:1032A0000448FDF7A7F9C0463404011000040110DA
:1032B00018040110E8030110030070B5002820D0A5
:1032C0008022520291421AD2002916D002898CB271
:1032D000A21892B2944212D8057B01207F2D0DD9FD
:1032E0005D68691A1D001035A94207D359605989D4
:1032F000002064185C811A8100E0002070BD01206C
:10330000FCE70148FDF776F95004011010B50028DC
:1033100002D0FFF79DFE10BD0148FDF76BF9C046D6
:103320005004011003000020002B04D01B68013062
:1033300080B2002BFAD1704710B50C0000281FD0C6
:1033400000291CD00368002B07D00289218952185C
:10335000028118001B68002BF7D102894389934230
:1033600014D1228904609B180381FDF767F8A37BC1
:103370000133A373FDF764F8A37B002B03D010BDCA
:103380000029FCD0F1E70348FDF734F90248FDF7C6
:1033900031F9C0465C04011070040110F0B54F46CD
:1033A000D64646468146C0B5884692461F0000294B
:1033B00000D184E00B89934200D280E0002800D144
:1033C0007DE053460289FB189A4200DA77E0002636
:1033D00044890CE043465A891B899A423DD04B46AA
:1033E0005C891B899C424DD05346002B57D04346E5
:1033F0005B89E41B9B1B9C4200D91C005546A245DF
:1034000000D925004B465B682A00D81943465B6803
:103410007F19991908F0AAFC534676195D1BABB2C7
:103420009A464B465C89BC424CD343465B89B342C7
:103430004BD305D143461B6800269846002B17D076
:10344000BC42C7D14B461B689946002B1FD0434650
:103450005A891B8900279A42C1D143461B68002B19
:10346000BDD006204042E0BCBA46B146A846F0BDF9
:103470005346002B23D1BC4219D04B461B899C429A
:103480000DD100264B461B68002BADD0E9E7534613
:10349000002B14D143461A895B899A4201D000203F
:1034A000E1E743461B68002BDBD10020DBE74B46FE
:1034B0001B689946002BF2D000275C89DDE71020BD
:1034C0004042D0E70248FDF795F80248FDF792F830
:1034D000A0040110B8040110F0B5C64605008846E6
:1034E00016001900002700B5002828D04346002BFD
:1034F00025D0002A05D122E02D68091B89B2002DB4
:103500001DD06C89002901D0A142F5D2641AA4B261
:10351000321CA64200D9221C4346D8196B6894B2CB
:103520009C46361B22006144E719B6B208F01EFC27
:10353000BFB22D68002E02D00021002DE1D138004D
:1035400080BCB846F0BDC046F8B5CE46474605003B
:103550008846914680B5002824D0002922D00389CE
:1035600093421CD316000027002A02D112E0002D3E
:103570001BD06C89B44200D9340043466868D9191D
:10358000220008F0F3FB361B2D683F19002EEED108
:10359000B9450DD10020C0BCB946B046F8BD0120E8
:1035A0004042F8E710204042F5E70348FDF722F8D3
:1035B0000248FDF71FF8C046D4040110EC040110C6
:1035C000F0B5D6464F46464604008A46C0B50028A8
:1035D00005D13AE024685B1B9BB2002C35D065898D
:1035E0009D42F7D921899F18B9422EDBE91A8A42F8
:1035F00032DD8AB2904662685146D0187D1B424641
:1036000008F0B4FBABB29946002B1CD02568002D06
:1036100029D02B894B4518D34F46002601E0002DB9
:1036200024D06C89BC4200D93C004346F11868683C
:103630002200514408F09AFB3F1B2D683619002FD9
:10364000EDD1B14515D1002001E001204042E0BCA0
:10365000BA46B146A846F0BD60685146C01808F0A9
:1036600085FB0020F3E710204042F0E70248FCF71A
:10367000C1FF0248FCF7BEFFD4040110EC040110A6
:1036800005E043898B4205D8C91A006889B2002831
:10369000F7D1704743685A54FBE7C04610B500287D
:1036A00011D00268002A0ED000290CD00B68002B24
:1036B00009D0094B1B68002B05D01C68944203D02D
:1036C000DB68002BF9D110BD0A681A60DB68002B9B
:1036D000F9D00268F1E7C046BCD900207047C04667
:1036E00010B5041E23D0037D042B05D0072B0FD06B
:1036F0000020032B00D010BD200000F0D7FF0028D1
:103700000AD105232375200001F052F90020F2E7C9
:1037100000F0CCFF002807D0431CECD10822638BBB
:10372000002013436383E6E709232375EBE7014891
:10373000FCF760FF0405011070B50600806F0028DB
:1037400003D0FFF7E3FD0023B367746F002C18D09C
:103750006068256800280CD0FFF7D8FD2100042000
:10376000FFF732FB002D0AD02C0060682568002886
:10377000F2D121000420FFF727FB002DF4D1002314
:1037800073670123F46E5B423386002C16D06068A9
:10379000256800280CD0FFF7B9FD21000420FFF7B1
:1037A00013FB002D0AD02C00606825680028F2D198
:1037B00021000420FFF708FB002DF4D1346F002C0A
:1037C00016D06068256800280CD0FFF79FFD210007
:1037D0000420FFF7F9FA002D0AD02C006068256854
:1037E0000028F2D121000420FFF7EEFA002DF4D1D9
:1037F00000236822F3663367B35270BD10B5FDF73E
:10380000C9F9044B80049C46800C034B604418802B
:1038100010BDC04600C0FFFF0C120020F8B5002804
:103820001DD0037D012B34D0028D1D4B511889B260
:1038300099421BD91900466A458E1A4FC46A018500
:10384000F3182A1CBD420BD892B212199A1A11D53C
:10385000A41B1BD48022520294421DD24485F8BD81
:103860003A1C92B212199A1AF2D403E08A42E1D8B1
:103870000B00E0E70C4A41851B1B9342EFD9022263
:10388000438B1343438301F093F8E8E70023438518
:10389000E5E70648FCF7AEFE0548FCF7ABFEC04680
:1038A000A02D0000D0160000670B00006405011079
:1038B00048050110F0B5DE46454657464E46E0B590
:1038C000BF4DC04A2B6887B001332B60BD4B1B78BE
:1038D00001331370BC4B9B465B461C68002C00D127
:1038E000CCE000230593237D002B00D112E2012BB5
:1038F00000D115E20A2B00D10FE2B24AA17F127863
:10390000914200D158E1A2774222A25C022B00D161
:10391000FDE00B2A00D9F7E0A122A65C002E00D121
:103920005AE1226F002A00D012E2E26E002A00D192
:103930000BE2A222A25C0B2A00D9E5E0A020A34A58
:103940009619013E3178225C8A4200D28DE16023D3
:10395000E15A002900D0B9E0200001F0E1FA002886
:1039600000D0BFE0A0230022E254A132A35C062BCA
:1039700000D9B7E0012700260133A354237D062B8D
:1039800000D1B5E008210800627A1040804611425B
:1039900027D0042B00D05EE12B68226AFA219B1A03
:1039A00099469423E35849009A469823E358984649
:1039B0009C23E05843465843504407F0FFFD81459F
:1039C00000D93EE1A3274346E05DFA2143431800B6
:1039D0004900504407F0F2FD00239846814500D984
:1039E0004AE1676F002F0AD02B68226A9A1A402397
:1039F000E15E4B005B185B009A4200D305E1237D3A
:103A0000032B00D18AE0092B00D0AEE02B68226A9C
:103A10009B1AF02B00D887E09023E6582000FFF790
:103A20008BFE059B002B00D1ADE05B461B68A342DB
:103A300000D17EE1059BE268DA604346002B00D0AE
:103A4000ADE023699946E3689846237D012B00D1B8
:103A50006CE121000220FFF7B7F900235C4C2370D2
:103A6000002E07D00D2148464942B0472378002B4D
:103A700000D031E74446002C00D034E7554F0024F5
:103A80003968002904D11AE00C00C968002916D051
:103A90000B7D0A2B00D046E12B680A6A9B1AF02B9B
:103AA000F2D9002C00D1DAE03B688B4200D143E12F
:103AB000CE68E6600220FFF787F9311EE8D107B033
:103AC000F0BCBB46B246A946A046F0BD200000F0BF
:103AD0000BFD002800D045E7200000F069FF00281A
:103AE00000D03FE7237D01270026062B00D049E7C1
:103AF000638BDB0605D52B68226A9B1A282B00D91D
:103B00003E00002398466CE70227012637E7052A86
:103B100000D801E700230126984662E72B68226A55
:103B20009B1A282B00D977E7002E00D074E7237F5B
:103B3000627F0133DBB2E66823779A4212D8002312
:103B4000234A237713708C33E358002B00D17CE099
:103B50002100206998471E4B1B78002B00D0BBE644
:103B6000002872D00594340085E7002EDFD0902223
:103B7000A658012B00D854E70A2B00D04EE7059B2E
:103B8000002B00D051E75B461B68A34200D0D9E070
:103B90005B46E2681A604346002B00D151E7238B55
:103BA000626A216D0293E38A20000193231D009332
:103BB000230000F05FFE44E70594E4685BE7C0463D
:103BC000ECDA002028DB0020DCDA002048080110B5
:103BD00026DB0020F0DA00203022A15E5E48228E33
:103BE000824202D8013211B221864022A25E012710
:103BF0008A4200DDC3E6200000F0EEFD002848D038
:103C0000236F002B42D0237DB9E67868A1463C683B
:103C100000280CD0FFF77AFB39000420FFF7D4F816
:103C2000002C0AD0270078683C680028F2D13900BF
:103C30000420FFF7C9F8002CF4D14C460023636739
:103C4000DDE601233E009846CBE6200000F0B0FE02
:103C5000059434000FE7072B00D19DE651E73B6840
:103C60008B426CD1CE683E6024E70132D2B222543E
:103C70008A4200D237E76AE6200001F0E1F8002826
:103C800000D0AEE6E35D0133E355AAE6E36E002B18
:103C9000B9D0237D022B13D03C22A35E3E21625E6D
:103CA000DB109B184222A15C0A1C0C2929D82B4945
:103CB000D2B28A5C9340284A934220DC4022A3522D
:103CC0000023482123866033E25A605A131C824243
:103CD00000D9031C4A209BB25B082352618E4A0024
:103CE00092B2934200D2225248230022E152223360
:103CF000E252200001F092F80127237D3FE6184BA5
:103D0000DCE70C221549D2B28A5C9340124A9342F6
:103D1000D4DDF4E71348FCF76DFC1348FCF76AFCAC
:103D20001248FCF767FC1248FCF764FC1148FCF7EA
:103D300061FC1148FCF75EFC1048FCF75BFC104886
:103D4000FCF758FC0F48FCF755FC0F48FCF752FCF9
:103D50000E48FCF74FFCC046FE7F000038080110FB
:103D6000FF7F00008C050110E4050110B80501106B
:103D7000D4060110100501107C0601100407011083
:103D80002C070110A80601104406011010060110AE
:103D900010B5041E08D04068002801D0FFF7B6FA1D
:103DA00021000420FFF710F810BDC04610B50C1E0E
:103DB00047D0002848D003688B4204D12FE0DA684E
:103DC000A24224D01300002BF9D10023E360237D0D
:103DD000002B0FD1638BDA0729D4E36E002B36D189
:103DE000236F002B36D1636F002B36D10023237550
:103DF000E38210BD0A2BF0D0012BF7D02000FFF793
:103E00009BFC237D0A2BE8D0012BEFD0E2E7E26890
:103E1000DA600023E360237D002BEBD1DAE7CB6887
:103E200003600023E360237D002BE3D1D2E702226D
:103E300013436383200000F0BBFD237D012BD5D00D
:103E4000CBE70748FCF7D6FB0648FCF7D3FB064850
:103E5000FCF7D0FB0548FCF7CDFB0548FCF7CAFB97
:103E6000540701107007011090070110A8070110F6
:103E7000C4070110F0B54E464546DE465746E0B54C
:103E800005000E0087B0002867D0037D012B00D10C
:103E9000B3E00A2B00D1A1E0026D9246426A05927E
:103EA00090228258934602699146002B63D1C38ABF
:103EB00000269846002B67D0534A1368834257D197
:103EC000C368136000232C6F98460026EB60002C1B
:103ED0005DD1EC6E002C16D06068276800280CD0ED
:103EE000FFF714FA21000420FEF76EFF002F0AD01E
:103EF0003C00606827680028F2D121000420FEF70A
:103F000063FF002FF4D16C6F002C16D06068276817
:103F100000280CD0FFF7FAF921000420FEF754FF27
:103F2000002F0AD03C00606827680028F2D12100E9
:103F30000420FEF749FF002FF4D1002E41D12B7D44
:103F4000012B5DD029000220FEF73EFF5B46002BCF
:103F500003D00D2148464942D84707B0F0BCBB46C4
:103F6000B246A946A046F0BDDA68AA4242D0130084
:103F7000002BF9D1A6E7C38A010024489846FFF731
:103F800015FF0122224B1A702C6F002CA1D0606803
:103F9000276800280CD0FFF7B9F921000420FEF7AC
:103FA00013FF002F95D03C00606827680028F2D1ED
:103FB00021000420FEF708FF002F00D189E73C0014
:103FC000F2E72B8B51460293434601932B1D00933E
:103FD00028002B00059A00F04DFCB0E701000D48C9
:103FE000FFF7E4FE2B7D012B0AD029000220FEF70B
:103FF000EBFEB2E7EA68DA6064E70748FCF7FAFA32
:104000000648FCF7F7FAC046E0DA0020DCDA0020C8
:1040100026DB0020F0DA0020DC070110100501107B
:10402000F8B5041E32D00023856F6F7B836784331D
:10403000C658002E0CD0010000232A000069B047AA
:1040400000280BD00D301ED00520A5674042F8BDDA
:104050002989FFF7E3FB2800FFF758F9BB0610D5C5
:10406000238D0C4A934201D0013323858423E558E4
:10407000002D06D00023002221002069A8470D3022
:1040800001D00020E3E70D204042E0E7102040424D
:10409000DDE7C046A02D0000F0B54F464646D646A7
:1040A000C0B5204D204F2B7801332B701F4B994604
:1040B000012398464B461C68002C1BD008262B7801
:1040C000A27F9A421BD04246A377638B1A421ED12D
:1040D0001E4216D1E3689A46A36F002B07D0002337
:1040E00020003B70FFF79CFF3B78002BE2D1544649
:1040F000002CE4D1E0BCBA46B146A846F0BDE46865
:10410000F6E7B34320006383FFF7EAFAE2E702220F
:1041100013436383200000F04BFC0322638B934323
:104120006383D5E728DB002026DB0020DCDA0020D3
:1041300010B5FFF7B1FF054A13780133DBB21370F6
:10414000DB0700D410BDFFF7B5FBFBE727DB002042
:1041500010B5002A12D000290AD00B8E002B07D0F0
:10416000282B06D9283B1A1C9BB2834203D890B255
:1041700010BD0020FCE7021C90B2F9E70148FCF7F3
:1041800039FAC0461008011070B504000D0000286F
:1041900002D00368002B00D170BD1F4A10680028B0
:1041A00005D00268934226D0C0680028F9D11B4B85
:1041B0001868002806D0236802689A4224D0C06894
:1041C0000028F9D1002DE7D02B68002BE4D0144B48
:1041D0001A68002AE0D023681168994205D0D26895
:1041E000002AD9D011689942F9D12B681360D2689E
:1041F000002AF0D1D0E7C6680121FFF73BFE002E70
:10420000D5D030002368CCE7C6680121FFF732FE25
:10421000002ED7D03000CEE7DCDA0020E0DA002034
:10422000E8DA002070B5446F0600002C18D06068F2
:10423000256800280CD0FFF769F821000420FEF75C
:10424000C3FD002D0AD02C00606825680028F2D13B
:1042500021000420FEF7B8FD002DF4D10023736780
:1042600070BDC046F0B54F464646D646C0B59946E5
:1042700008AB80460E0092461F7800285FD00029C8
:104280005AD00425BB0004201D40FEF77FFD041E0C
:104290004ED000238772036046603389AAB2AB42D6
:1042A00050D39B1A038114213000FFF705F8061E36
:1042B00034D163685F684346E760D88AFEF78EF8BA
:1042C00043463870000A7870188BE768FEF786F866
:1042D000B870000AF8704846E768FEF783F8030AEA
:1042E0007B71030CBB71E36838719846A023DB0136
:1042F0009C465346000EF871A80260441843FEF72E
:104300006DF843461873000A5873E3689E74DE74B0
:104310002000E0BCBA46B146A846F0BD8C220B494D
:1043200020008B5A002401338B52FFF731FDEFE759
:104330003000FEF7EBFFEBE70548FCF75BF90548BB
:10434000FCF758F90448FCF755F9C04654300020F2
:10435000700801105008011094080110F0B547468C
:10436000CE4680B505000C0090461E0085B00029A1
:104370004DD0002838D0007A00282BD1180003F047
:104380002BF8071E2AD06368062199462000434671
:1043900022890096FEF7F0FA4B461874000A58740A
:1043A000EB7AAD7A78211B48425A013242520622FA
:1043B00000950192414632002000029703F04AF82E
:1043C00005002000FEF7A2FF280005B0C0BCB946DA
:1043D000B046F0BDFEF726FE071ED4D1042520000E
:1043E000FEF794FF6D42EFE7180002F0F5FF071E9D
:1043F000F4D0434606212000228900966568FEF726
:10440000BBFA2874000A6874FF230025CAE7024833
:10441000FCF7F0F854300020AC080110F8B54E4617
:104420004546DE465746E0B50500160000284ED04A
:10443000A022436A14319846C38A89B29A46038BF4
:1044400092009946438D22209B46FEF759FE071E97
:1044500036D04389132B3DD944685046FDF7BEFF43
:104460002070000A60704846FDF7B8FF330AA0705C
:104470002671000A6371330C360EE070A37140465A
:10448000E671FDF7AFFF030A20726372030C000EA2
:10449000A372E0721148FDF7A1FF2073000A607358
:1044A0005846FDF79BFF00236A6AA0739446000AF2
:1044B000E07323746374A374E3746B8D6344EB62E1
:1044C0003800F0BCBB46B246A946A046F8BD044839
:1044D000FCF790F80348FCF78DF8C0461050000038
:1044E000D808011000090110F0B54546DE465746D0
:1044F0004E46E0B50C00050083B0002800D1C3E0B3
:10450000C66E002E00D1BCE0002900D1BFE0338987
:104510009A468B4200D8A8E0438E8B4200D2B9E085
:10452000B37AA0229900994604230B409B46534638
:104530001F1B5B46BFB2F918362089B29200FEF706
:10454000DFFD804600281ED0736832891B894168D0
:104550009B1AE3183A0070689BB25944FEF7BCFFFF
:10456000B84218D084224D4940468B5A01338B52B1
:10457000FEF7CCFE0120404203B0F0BCBB46B24681
:10458000A946A046F0BD84220120444940428B5AEE
:1045900001338B52F0E7F368587B1A7B000210431B
:1045A000FDF71CFF082302001A409346C7B21842C9
:1045B0005DD13F200122074001233B4201D09346B9
:1045C0009F43F1684B7908798A791B020343C879C4
:1045D0001204134300061843FDF704FF4A46414600
:1045E0002318009228005A46FFF73CFE8046002818
:1045F000C9D07068FEF796FE662399464A46EB5A84
:104600001B1AAB525346E41A7368A4B219891800F6
:10461000611889B2FEF70CFE3189F36864183481A1
:104620001C7B5B7BB8B21B021C43FDF7D7FE20430B
:10463000F26883B21B0A107353737068FEF772FE40
:104640004B46EB5AC0184B46E85243465868FEF7B3
:1046500069FE4B46EB5A3268C0184B46E852434657
:104660001A6033601B68002B07D0002084E73720D6
:10467000082309229B4607409EE768220020AB5290
:104680007AE70120404277E70548FBF7B3FF05488A
:10469000FBF7B0FF0448FBF7ADFFC04654300020E5
:1046A00030090110540901107809011070B5040097
:1046B00082B0002800D17CE0C36E002B0CD01D001E
:1046C0001B68002BFBD1EB68587B1A7B0002104360
:1046D000FDF784FE430741D0A0220021362092003E
:1046E000FEF70EFD011E58D000230122009320008A
:1046F000E36DFFF7B7FD002844D0C3689B075ED188
:104700000389002B58D1E36E002B25D01A001B68BB
:10471000002BFBD1106068230022E2522022E36DBF
:1047200040680133E365638B13436383FEF7FAFD4F
:104730006623E25A801880B2E052002802D100209D
:1047400002B070BD236F0020002BF9D1E36E002B67
:10475000F6D11C48FBF74EFFE066DCE7EB68012072
:104760001E7B5B7B1B021E43FDF738FE3043EA686D
:1047700083B21B0A107353732022638B00201343F0
:104780006383DDE78022638B0F49134384226383B5
:104790008B5A013801338B52D2E78022638B012080
:1047A00013438422084963838B5A404201338B525E
:1047B000C6E70648FBF71EFF0548FBF71BFF054849
:1047C000FBF718FFE8090110543000208809011098
:1047D000BC090110A4090110F0B5C646050000B5DA
:1047E000002841D0026F002A39D01400636826687F
:1047F0009B7B002E07D0012B31D1340063682668E3
:104800009B7B002EF7D1012B29D1EB6EE168236051
:104810008023EA666A8B1B0113432E676B834A79F8
:1048200008798B7912020243C8791B041A430006E7
:104830001043FDF7D7FD238907009846E3684744F6
:10484000587B1A7B00021043FDF7C8FD0323034089
:104850005A1E9341DB190020EB646E6301E00620D1
:10486000404280BCB846F0BD0148FBF7C3FEC046DD
:10487000100A0110F0B55746DE464E464546E0B5F3
:1048800083B01F000CAB904604CB01901B8808003E
:104890009B460EAB1B8891469A46002F4BD0002AB0
:1048A0004CD0FDF79FFDA02205001421222092008C
:1048B000FEF726FC061E37D04389132B41D94468E6
:1048C0005846FDF78BFD2070000A60705046FDF7DA
:1048D00085FD2B0AA0702571000A63712B0C2D0E2B
:1048E000E070A3714046E571FDF77CFD030A20727C
:1048F0006372030C000EA372E0721348FDF76EFDA5
:104900002073000A60731148FDF768FD0023A0734F
:10491000000AE07323746374A374E3743A004B4693
:1049200031000198FFF71AFD03B0F0BCBB46B24658
:10493000A946A046F0BD0648FBF75CFE0548FBF71C
:1049400059FE0548FBF756FE145000002DA000004C
:10495000340A0110500A01100009011010B5041E9C
:1049600020D0006DFDF73EFD002102002000FFF782
:1049700055FD011E0FD0231D22002000FFF7EEFC85
:10498000638B002803D103229343638310BD03226A
:1049900013436383FAE703220220638B40421343ED
:1049A0006383F3E70148FBF725FEC0466C0A01105C
:1049B000F0B5DE4657464E464546E0B5040087B0A2
:1049C000002800D11CE2037D012B00D115E2CB4B66
:1049D0001B68834200D1F2E1C56E002D34D048231C
:1049E000C65A1833C75A031D007A9946002800D0CA
:1049F000E7E1180002F0F0FC82465346002B00D19C
:104A0000F2E12368002B02D153465B682360331C1C
:104A1000BE4200D93B1CE9689FB24B7908798A797C
:104A20001B020343C8791204134300061843FDF721
:104A3000D9FC2B89626C9B1A1B18BB4213D96023CB
:104A4000E35ABB4200D12CE1628B930700D524E1ED
:104A5000802300209A43628307B0F0BCBB46B24675
:104A6000A946A046F0BDA1230022E254236F002BEB
:104A700000D126E11A001B68002BFBD1904643466B
:104A8000B8461F00C8E0EE686B689B7B9B46012B15
:104A90005FD1606AFDF7A6FC030A30727372030CE3
:104AA000000EB372F072608DEE68FDF797FC626ADB
:104AB000B07394465A46000AF073638DEE686344FF
:104AC000E362AB7A1A4200D01EE114239B46B34442
:104AD0003022A35E002B01DA00232386636B002BB8
:104AE00000D1F8E0686843684660F21A438992B2E0
:104AF0009B1A438103899A1A002392B2028133746C
:104B00007374A97A043389000B401433F3189B455E
:104B100000D06FE14B46062100932300FDF72CFFE8
:104B200078223074764B000A70749B5A74490133B2
:104B30008B525246E37A6868029206220192A27A68
:104B4000210000924A4602F085FC002800D046E190
:104B5000EE682B68E366237D022B03D00322638B70
:104B60009343638373793079B2791B020343F079FD
:104B70001204134300061843FDF734FC2B8906008A
:104B80009B46EB685E44587B1A7B00021043FDF79E
:104B900025FC03231840431E9841236D80191B1ADE
:104BA00000D52065EB682E89587B1A7B00021043E4
:104BB000FDF714FC032303405A1E93419B19002B5D
:104BC00000D181E000232B60236F002B00D17FE018
:104BD000E9684B7908798A791B020343C879120482
:104BE000134300061843FDF7FDFBF96806004B79F7
:104BF00008798A791B020343C8791204134300061B
:104C00001843FDF7EFFB361A00D5A4E03D602F00F6
:104C1000E56E002D00D1DCE0E9684B7908798A79EE
:104C20001B020343C8791204134300061843FDF71F
:104C3000D9FB636CC01A2B89C018404500D9CAE063
:104C4000EB68587B1A7B00021043FDF7C7FB430754
:104C500000D5CCE0236F002B0AD04421638B1A00CF
:104C6000194205D1E16E002962D0086800285BD0A6
:104C7000237D022B00D106E7EB6810201A7B5B7BBB
:104C80001B0213439B46FDF7A9FB5B461843EE68E6
:104C900083B21B0A30737373F6E62000FFF75EFEE3
:104CA000DAE6236F002B00D0CEE6A133E35C002BC5
:104CB00000D0C9E68021A0224900A1520232A354AB
:104CC000C2E600239846DAE62800FFF761F89FE77E
:104CD0002F0025679CE70B4B1B6805936363737973
:104CE0003079B2791B020343F079120413430006B2
:104CF0001843FDF777FBEE68A063F3E6E4DA0020E3
:104D000054300020ECDA00204A4651463E48FFF776
:104D10001FFA81239B041843FDF764FB18239B466D
:104D20007061B344EE68D3E60E89608E86429FD2EE
:104D30006420205A00289BD06620205A1F2897D82C
:104D4000A020184294D1002900D081E668220021D9
:104D5000A1521A007CE670239B46236FA344002BCC
:104D600029D022005C46934603E024682368002B88
:104D70002BD0D9684B7908798A791B020343C8790B
:104D80001204134300061843FDF72CFBE9680600E4
:104D90004B7908798A791B020343C87912041343BB
:104DA00000061843FDF71EFB361ADED45B46A34609
:104DB0001C005B461B682B605B461D6028E70020DB
:104DC0004AE6FEF72FF9824617E65A46A346140034
:104DD000F1E7638BBAE7638BE16E1A00B3E78022D9
:104DE000638B1343638337E60420404234E607486D
:104DF000FBF700FC0648FBF7FDFB0648FBF7FAFB58
:104E00000548FBF7F7FBC046B4050000CC0A0110CB
:104E1000E40A0110A40A01108C0A011010B5002840
:104E200008D04222835CFF2B01D001338354FFF76B
:104E3000BFFD10BD0148FBF7DDFBC046F80A0110BD
:104E4000F8B54546DE4657464E46E0B5051E5AD0F3
:104E5000036D581EFDF7C6FAA0226B6A060099463C
:104E6000EB8A14219B462B8B22209A466B8D920055
:104E70009846FEF745F9071E42D04389132B45D9C2
:104E800044685846FDF7AAFA2070000A6070504640
:104E9000FDF7A4FA330AA0702671000A6371330C7F
:104EA000360EE070A3714846E671FDF79BFA030ADF
:104EB00020726372030C000EA372E0721548FDF7B6
:104EC0008DFA2073000A60734046FDF787FA0023CD
:104ED0006A6AA0739446000AE07323746374A3742F
:104EE000E3746B8D2A006344EB62390028002B1DAC
:104EF000FFF734FAF0BCBB46B246A946A046F8BD5F
:104F000001204042F6E70448FBF774FB0348FBF737
:104F100071FBC046105000001C0B0110000901106D
:104F2000F0B5C646040000B5002800D175E0C56E96
:104F3000002D00D16FE0A222835CFF2B01D0013352
:104F40008354EB68587B1A7B00021043FDF746FA46
:104F5000C30740D52B89002B3DD1E86843790279FE
:104F600081791B021343C27909040B431206002105
:104F700020001A43FFF752FA071E49D07B68112020
:104F800098461E7B5B7B1B023343254E1E40FDF77C
:104F900025FA434636B2304382B2120A18735A7366
:104FA000E9684B7908798A791B020343C8791204AE
:104FB000134300061843FDF715FA236D01301B1A41
:104FC00000D52065220039002000231DFFF7C6F917
:104FD00080BCB846F0BDE8684379027981791B024C
:104FE0001343C27909040B431206012120001A431E
:104FF000FFF714FA071E0BD06B682A891B897968A2
:105000009B1A686801229BB21431FEF765FAC7E764
:1050100001204042DCE70020DAE70248FBF7EAFA29
:10502000FFC0FFFF380B011070B5040006200E0012
:105030001500FDF7ABFE002813D000230A490360DA
:105040000B688660C5604460002B04D107E019003E
:105050001B68002B02D05A68A21AF8D503600860BA
:1050600070BD0248FBF7C6FADCC900205C0B0110DA
:1050700010B5436804009847FBF7E4F903000849BA
:10508000226808681018C11A05D5D01805492200F1
:10509000FFF7CAFF10BD22000249FFF7C5FFF9E77D
:1050A0008C1D002071500010F8B580231D4EDB05CB
:1050B0004746CE4699461C4B3500984680B51B4F57
:1050C000083530362C684C4526D2FBF7BBF924183E
:1050D0000620FDF75BFE002821D000230360434635
:1050E00083603B68C5604460002B03D05A68A21AF5
:1050F0000BD5036038600835AE42E3D1C0BCB94679
:10510000B046F8BD5A68A21A03D419001B68002BD8
:10511000F8D103600860EEE70548FBF76BFA054835
:10512000FBF768FAD40B011071500010DCC90020A5
:105130009C0B01105C0B0110F8B5CE46474680B5BC
:10514000FBF780F9134E0500134C144F12E0216851
:10515000002917D04B68EA1A14D40A680620226086
:105160008A683B609046CA689146FDF72DFE43462B
:10517000002B0BD13378002BE9D0FDF7A7FF216876
:105180000029E7D1C0BCB946B046F8BD4846C04783
:10519000F0E7C04624DB0020DCC900208C1D002085
:1051A00010B5084C2368002B08D0FBF74BF9236897
:1051B0005B68181AC30F013B184010BD0120404224
:1051C000FBE7C046DCC9002010B5FBF7E3FC044B4D
:1051D00080049C46800C034B6044188010BDC04680
:1051E00000C0FFFF0E120020F0B5CE46474680B546
:1051F000002900D16DE0002800D16FE0394E3568FC
:10520000002D39D0A84242D02B0001E098423ED078
:10521000DB68002BFAD19C46002A3CD00C682B009E
:10522000002C03D11FE0DB68002B0FD09842FAD08E
:10523000598A9142F7D119688C4201D00029F2D1E4
:105240000820404208E043460C681A806346046028
:105250004282002B17D00020C0BCB946B046F0BD3A
:10526000DB68002BF2D08342FAD0598A9142E7D012
:10527000DB68002BF7D1E9E700239C46002A0AD01F
:105280000B6842820360C56030600020E4E70123C0
:105290009C46002AC2D1144B802798461A88134B8B
:1052A000FF0199464A4516D0013292B2002DCAD06C
:1052B0002B0002E0DB68002BC5D05C8A9442F9D158
:1052C000013FBFB2002FEDD1434608201A80404273
:1052D000C2E707498FE7C0221202E7E710204042E9
:1052E000BAE7C046F4DA00200E120020FFFF0000EB
:1052F00068110110F0B5CE46474680B504000E0097
:105300009046994685B0002800D17AE0002900D166
:1053100077E0002A00D174E00D9B002B00D170E0F3
:105320000C9B002B00D16CE0438A002B44D03289C7
:10533000384B9A4200D967E008213000FDF7BCFFE6
:10534000370000283FD17B89072B60D9608A7D68B0
:10535000FDF744F82870000A68704846FDF73EF8EB
:105360000023A870000AAB71EB71E8703889FDF773
:1053700035F82871000A6871237CDB0732D50C9A56
:105380003800029211220192A27AE37A00920D99DA
:10539000424602F027F90500B74202D03800FDF777
:1053A000B5FF60221C498B5A01338B52280005B08F
:1053B000C0BCB946B046F0BD00220100FFF714FFA3
:1053C000051EB4D0F2E7A022082122209200FDF7AA
:1053D00097FE071E18D03389002BB4D03100FDF79B
:1053E000ABFFB0E743463A891121009338000D9B8B
:1053F000FDF7C2FA002800D10848A871000AE87138
:10540000BDE710256D42D1E701256D42CEE7044886
:10541000FBF7F0F8F7FF000054300020FFFF00001A
:10542000040C011070B582B0069C002818D0002929
:1054300016D0002A14D0002C12D00568002D06D1F9
:10544000251D01950094FFF755FF02B070BDF026B1
:105450002E40E02EF4D06668B54204D10500F0E796
:1054600010204042F1E704204042EEE7F0B504008E
:105470000E0015001F0083B0002825D0002923D07E
:10548000002A21D0007A002819D1100001F0A4FFD1
:1054900000281CD02368002B14D0F0221A40E02AE8
:1054A00010D04268934219D12300019300903B0031
:1054B0002A0031002000FFF71DFF03B0F0BDFDF70B
:1054C000B1FDE5E7031DF0E710204042F5E76E224D
:1054D000044904388B5A01338B52EEE704204042D2
:1054E000EBE7C0465430002070B504000D001600F4
:1054F000002825D0002923D0438A002B19D004226C
:105500002B6811496360237CA68213430A682374C5
:10551000002A08D094420AD0130001E09C4206D031
:10552000DB68002BFAD10020E2600C6070BD002027
:10553000FCE700220100FFF757FE0028DFD0F5E767
:1055400010204042F2E7C046F4DA0020002801D0E3
:105550008161C2617047C046010010B5002810D0BB
:105560000B4A136883420DD0002B07D01A00DB686A
:10557000002B03D08B42F9D1CB68D3600120FDF71B
:1055800023FC10BDC36801201360FDF71DFCF8E784
:10559000F4DA002010B50120FDF7F8FB041E05D059
:1055A0002022002106F0DCFBFF23E372200010BD67
:1055B00010B5002811D00268002A0ED000290CD0A6
:1055C0000B68002B09D0094B1B68002B05D01C6809
:1055D000944203D0DB68002BF9D110BD0A681A6031
:1055E000DB68002BF9D00268F1E7C046F4DA00204E
:1055F000F0B546464F46D6460500C0B590460E006B
:105600009946002800D194E0002900D191E09A2326
:10561000A0225B001900362092009A46FDF770FD2B
:10562000071E00D185E04389534500D28FE04346F1
:10563000032B28D0B379002B00D183E0454B1868A9
:105640009A227C68002130605200200006F088FB1E
:105650000123237063703733EB5CA3703068FCF771
:10566000C1FE030A637103021B0EA371434620713E
:10567000000EE071082B24D0042B22D0072B20D061
:10568000032B26D119E07379032B54D07C68524642
:105690000021200006F064FB012323706370373380
:1056A000EB5CA3703068FCF79DFE030A6371030294
:1056B00020711B0E000EA371E0717379043B012B66
:1056C00007D82B7923736B796373AB79A373EB7969
:1056D000E3733223EB5C352223773323EB5C7E20AC
:1056E00063773423EB5C4042A377AB5CE3773623EC
:1056F000E95C163BE1541733E95C163BE154632146
:10570000CB33E1542300EC335870D1309870D9700A
:10571000F023E2540133343AE25442460133E25476
:105720004A46EF3B13803800E0BCBA46B146A84673
:10573000F0BD0027F7E7B379002B03D0054B1B68BA
:105740003360A3E7FBF726FA024B186078E70248BC
:10575000FAF750FF0CDB0020340C011070B5154C2B
:105760002378002B1CD1144D2B68002B1CD1FFF784
:1057700011FF286000281AD02022437A0F4E1343CD
:10578000437244223100FFF72FFD43223100286885
:10579000FFF7AAFE002228680949FFF7D7FE237801
:1057A00000200133237070BD0648FAF723FF012063
:1057B0004042F8E71EDB002064270020681101103A
:1057C00021600010740C011070B5050082B0002833
:1057D00041D0846A002C3ED00023A06A6382431C1F
:1057E0000BD0F0231E309B03984260D23C2105F081
:1057F000E5FE002863D080B2A082E06A431C2CD072
:10580000F0231E309B0398424FD23C2105F0D6FE78
:10581000002857D086B2206B6681E681431C20D1D8
:10582000A389B34201D8002B27D1E379DB0729D51F
:10583000236A0093636A019363790A2B04D00A23D5
:1058400063710023A371238121006A4628001C3163
:1058500001ABFDF70FFB02B070BD206B6689431CE6
:10586000DED0F0231E309B03984213D301235B420A
:10587000A3812382194B9E42D7D100236381E37910
:10588000DB07D5D41C23E356227F002B12DBFF233A
:105890000093CFE73C2105F091FE002814D080B2A0
:1058A000A0812082B042C0D8E7E70C4EB3E70B4896
:1058B000A082A2E7BF2A0ED9094B0093BAE70130B4
:1058C00080B299E70130A5E7013080B2A081208243
:1058D000B042AAD8D1E7014B0093ABE7FFFF00002D
:1058E000FFFFFF00F0B5C64606008846170000B56A
:1058F000002A29D010000AF08BFA002824D0412376
:105900009B1B984227D8FF2825D8B11C4318C2B248
:10591000442B23D80C234446A3550136B6B2A255D6
:105920008BB23D78432B13D809041818090C0024B6
:1059300086B2414403E001343D5D442B08D001337D
:105940009BB20D559E42F6D1300080BCB846F0BDEA
:105950000448FAF74FFE0448FAF74CFE0348FAF7FA
:1059600049FEC046FC0C01109C0C0110B80C011043
:10597000002330B52F4D03624362EB78040083B0FF
:10598000002B02D02C4BDB6883622B79002B3BD0A1
:10599000294B1B69E3626B79002B30D0264B5B6986
:1059A0002363487C0B7C8A7C00021843CB7C120466
:1059B00010431B060343E361AB79002B27D101227F
:1059C000E3799343E371EB79002B2CD12B7A002BF5
:1059D00013D0194C206AFCF705FD01A901900020A5
:1059E000FCF752FE6B7A002B07D0606AFCF7FAFCDA
:1059F00001A901900120FCF747FE03B030BDA26A67
:105A0000D3009B1ADB08CBE7A36A5B08C2E70A4B0B
:105A10009869FCF7E7FC0122E37920621343E37104
:105A2000EB79002BD2D0044BD869FCF7DBFC606229
:105A3000CCE7C0466827002074270020F0B54E460A
:105A40004546DE465746E0B5836A804699465B790F
:105A500085B0032B05D04A4603235371002393716D
:105A600013810E276F443B00032249464046FFF74F
:105A7000BFFD061E00D19AE03D8844682A1DF0341F
:105A8000442A00D9B6E0392302206355691CAB1CB7
:105A90009BB289B26054991C3B80442900D9AFE085
:105AA0004021E054EB1C9BB2E1540A239B46AB44DB
:105AB0005B463A80442B00D99CE03223A354AB1DB3
:105AC0009BB29A4604226B1D9BB2E25453463B8024
:105AD0004B46D869FCF786FC53460433442B00D967
